:100000000C9434000C9451000C9451000C94510049
:100010000C9451000C948C020C9451000C945100DF
:100020000C9451000C9451000C9451000C94D1028A
:100030000C9451000C9451000C9451000C945100FC
:100040000C9451000C9451000C9431040C94510008
:100050000C9451000C9451000C9451000C945100DC
:100060000C9451000C94510011241FBECFEFD8E026
:10007000DEBFCDBF11E0A0E0B1E0E6E4FBE002C0EE
:1000800005900D92AC30B107D9F722E0ACE0B1E0B9
:1000900001C01D92A830B207E1F70E9488040C94B9
:1000A000A1050C94000081E00E947B02811104C034
:1000B00081E00E94040203C081E00E94FE0180E012
:1000C0000E947B02811102C00C94040280E00C9417
:1000D000FE0120910D0180910E0190910F012223CC
:1000E000F1F08536910518F010920D0112C00E94B2
:1000F000BC0381110AC080910E0190910F010196FD
:1001000090930F0180930E0108C00E94BC038130C0
:1001100021F410920F0110920E015B9A089585361A
:10012000910520F081E080930D0112C00E94BC0374
:10013000813051F480910E0190910F0101969093BE
:100140000F0180930E0108C00E94BC03811104C0FE
:1001500010920F0110920E015B9808950E94EC011D
:10016000811102C05A9808955A9A089580910C01FD
:10017000811108C00E941102811104C081E08093A6
:100180000C010AC080910C01882341F00E941102E9
:10019000882321F010920C010C9419020895909379
:1001A000C5008093C400E1ECF0E08081886080832A
:1001B00080818061808386E08093C2000895909161
:1001C000C00095FFFCCF8093C6000895CF93DF93C6
:1001D000EC018991882319F00E94DF00FACFDF91AA
:1001E000CF9108958091C00087FFFCCF8091C60019
:1001F0000895CF92DF92EF92FF920F931F934115D4
:10020000510521F40115110509F4A0C094EA909359
:10021000BC009091BC0097FFFCCF9091B900987FF3
:10022000983009F068C0982F9E7F9093BB0094E8A7
:100230009093BC009091BC0097FFFCCF9091B900C7
:10024000987F983121F0903209F055C051C0FB01E0
:10025000460F571F64E8E417F50791F091919093CA
:10026000BB006093BC009091BC0097FFFCCF9091C5
:10027000B900987F983279F39033E9F590E338C06C
:10028000F901020F131F24E8E017F10779F09191AB
:100290009093BB002093BC009091BC0097FFFCCFD3
:1002A0009091B900987F983279F3E6CFC114D104C8
:1002B00009F44AC020E194EA9093BC009091BC00FC
:1002C00097FFFCCF9091B900987F921314C0816082
:1002D0008093BB0084E88093BC008091BC0087FFC2
:1002E000FCCF9091B900987F903439F0983419F48C
:1002F00084E98093BC00892F2FC0F70184EC91E042
:10030000C916D10491F08093BC009091BC0097FF76
:10031000FCCF9091B900987F21E0C21AD1089035A6
:1003200051F79091BB009193EACF84E88093BC0091
:100330008091BC0087FFFCCF9091B900987F9835E1
:10034000D1F68091BB00808390E0D2CFC114D1045C
:1003500011F028E0B0CF80E01F910F91FF90EF9057
:10036000DF90CF9008951092B9008093B80008955F
:10037000ECE7F0E080818064808380818F778083E8
:10038000808180628083EAE7F0E0808187608083FB
:10039000808180688083089590917C00982B909351
:1003A0007C0090917C00806F892380937C008091F9
:1003B0007A00806480937A0080917A0086FDFCCF79
:1003C0008091790008950C94B801882311F081E0A0
:1003D00001C082E00C94CC0181E00E94CC01843603
:1003E00030F082E00E94CC0191E0843608F490E085
:1003F000892F089584B1866084B90895882311F007
:100400002A9A0895299A0895882311F02A98089520
:10041000299808955C9A549A0C94B80180E00C9441
:10042000CC010E940E0291E08A3008F490E0892FFE
:1004300008955C982FEF8FE995E02150804090401F
:10044000E1F700C000005C9A089584B1816884B926
:10045000E8E6F0E0808184608083EDE6F0E0808172
:1004600080648083808180688083E1E8F0E080811F
:1004700088608083AFE6B0E08C9182608C9380E0EE
:1004800098ED9093890080938800808182608083BA
:100490007894089580910401882301F11092040159
:1004A0008091100191E089278093100195B180918E
:1004B0001001882311F081E001C080E8892B85B903
:1004C00088E18A95F1F700C095B1809110018823E9
:1004D00011F08EEF01C08FE7892385B90895882335
:1004E00029F080910201909103010895809100010B
:1004F000909101010895882329F020910201309103
:10050000030104C0209100013091010181E02731F5
:10051000324008F080E008951F920F920FB60F92BC
:1005200011248F939F9380911001882311F090E400
:1005300001C090E889B1892361F080911201811195
:1005400008C081E08093120110928500109284000F
:1005500021C089B18923F1F4809112018823D1F05F
:100560001092120181E08093110180911001882383
:1005700049F08091840090918500909303018093CD
:10058000020108C080918400909185009093010140
:10059000809300019F918F910F900FBE0F901F903D
:1005A00018951F920F920FB60F9211242F933F931D
:1005B0004F935F936F937F938F939F93AF93BF936B
:1005C000EF93FF9380911101811111C0809110016F
:1005D000882339F08FEF9FEF9093030180930201FE
:1005E00006C08FEF9FEF909301018093000110925E
:1005F000110110921201109285001092840081E086
:10060000809304010E944A02FF91EF91BF91AF9144
:100610009F918F917F916F915F914F913F912F911A
:100620000F900FBE0F901F901895CF92DF92EF9210
:10063000FF920F931F93CF93DF9300D01F92CDB7FC
:10064000DEB7559A8B830E94B8018B810E94B3015B
:1006500080E28A8387E78983C12CD12CE12CF12C9D
:1006600001E010E09E012F5F3F4F41E050E0BE01EE
:100670006E5F7F4F80E30E94F90081110FC083E21B
:100680008A8388E889839E012F5F3F4F41E050E0D5
:10069000BE016E5F7F4F80E30E94F9000F900F90C4
:1006A0000F90DF91CF911F910F91FF90EF90DF900E
:1006B000CF90089583E00E94CC01813810F05D9ABC
:1006C00008955D9808956F927F928F929F92AF9256
:1006D000BF92CF92DF92EF92FF920F931F93CF932F
:1006E000DF93CDB7DEB727970FB6F894DEBF0FBE06
:1006F000CDBF3C014B015A0188EA8F8386E0C82EAA
:10070000D12CCE0101967C0100E010E020E030E029
:1007100041E050E0BE01695F7F4F80E30E94F90035
:10072000811115C069814B819C8150E0592B2D812D
:100730009E8130E0392B9A8170E0792BF30171832F
:100740006083F40151834083F50131832083279630
:100750000FB6F894DEBF0FBECDBFDF91CF911F91D2
:100760000F91FF90EF90DF90CF90BF90AF909F9050
:100770008F907F906F900895CF93DF9300D000D03B
:1007800000D0CDB7DEB71E821D821C821B821A826A
:100790001982AE014F5F5F4FBE016D5F7F4FCE018B
:1007A00005960E946303811114C02D813E81215062
:1007B0003109273E334070F42B813C81213D374085
:1007C0004CF081E029813A8120383E431CF080E0E2
:1007D00001C082E026960FB6F894DEBF0FBECDBFF3
:1007E000DF91CF910895BC0180E090E00E94A104C8
:1007F00020E030E040E858E30E94DE0408951092C3
:1008000011011092150126E131E030930702209387
:1008100006022EE831E030931401209313010E9468
:10082000CF00E1ECF0E080818068808378940895C7
:10083000209111012223A1F0109211016091130166
:1008400070911401A5E0B1E0FB012D91222321F06C
:1008500031912317D1F304C048E750E00C9492057E
:1008600008951F920F920FB60F9211242F933F936A
:100870008F939F93EF93FF938091C600E0910602C0
:10088000F09107029091150121E0290F20931501A5
:10089000E90FF11D808390911501983718F097E7C3
:1008A000909315018A3049F580911501E091060277
:1008B000F0910702E80FF11D1082809106029091DD
:1008C000070221E08631920739F42EE831E03093B7
:1008D00007022093060208C086E191E09093070288
:1008E000809306028EE891E09093140180931301A7
:1008F0001092150181E080931101FF91EF919F917A
:100900008F913F912F910F900FBE0F901F901895D0
:100910008AB18C608AB90E94E3010E94FA010E94A8
:100920000A020E9425028DE10E9415030E945A03CB
:100930000E9453000E9469000E94AE000E94B6000F
:10094000F5CFE89409C097FB3EF49095809570959B
:1009500061957F4F8F4F9F4F9923A9F0F92F96E90B
:10096000BB279395F695879577956795B795F11180
:10097000F8CFFAF4BB0F11F460FF1BC06F5F7F4F1D
:100980008F4F9F4F16C0882311F096E911C077232F
:1009900021F09EE8872F762F05C0662371F096E838
:1009A000862F70E060E02AF09A95660F771F881F07
:1009B000DAF7880F9695879597F908950BD078C048
:1009C00069D028F06ED018F0952309F05AC05FC0A6
:1009D0001124A2C07ED0A0F3959FD1F3950F50E0D3
:1009E000551F629FF001729FBB27F00DB11D639FE1
:1009F000AA27F00DB11DAA1F649F6627B00DA11D87
:100A0000661F829F2227B00DA11D621F739FB00D2C
:100A1000A11D621F839FA00D611D221F749F33279C
:100A2000A00D611D231F849F600D211D822F762F35
:100A30006A2F11249F5750408AF0E1F088234AF032
:100A4000EE0FFF1FBB1F661F771F881F915050407E
:100A5000A9F79E3F510570F014C05EC05F3FECF3F4
:100A6000983EDCF3869577956795B795F795E7956A
:100A70009F5FC1F7FE2B880F911D9695879597F97B
:100A8000089597F99F6780E870E060E008959FEF10
:100A900080EC089500240A94161617061806090615
:100AA000089500240A9412161306140605060895E4
:100AB000092E0394000C11F4882352F0BB0F40F46C
:100AC000BF2B11F460FF04C06F5F7F4F8F4F9F4FAC
:100AD000089557FD9058440F551F59F05F3F71F02E
:100AE0004795880F97FB991F61F09F3F79F0879595
:100AF0000895121613061406551FF2CF4695F1DF1E
:100B000008C0161617061806991FF1CF86957105AD
:100B1000610508940895E894BB2766277727CB01E1
:100B200097F90895FB01DC014150504048F00190D5
:100B30000D920020C9F701C01D9241505040E0F7CE
:060B40000895F894FFCFB8
:0C0B4600FFFFFFFF01244750524D430009
:040000050080011264
:00000001FF
